:020000020000FC
:1000000010C0189518951895189518951895189565
:100010001895189518951895189518951895189578
:1000200018950FE50DBF02E00EBF479A00E805BF27
:1000300011271FEF31E040E1E4E0F0EA07E0008340
:10004000E0E0F0EB108331D0131B4A9509F0FACFB2
:100050001FEF30E140E1E4E0F0EA0BE00083E0E094
:10006000F0EB108322D0131B4A9509F0FACF1FEF53
:1000700031E040E1E4E0F0EA0DE00083E0E0F0EAA6
:10008000108313D0131B4A9509F0FACF1FEF30E10C
:1000900040E1E4E0F0EA0EE00083E0E0F0EA108303
:1000A00004D0131B4A9529F2FACF80E094E203D0E2
:1000B0000197E9F70895000025EC00002A95E9F77B
:0200C0000895A1
:00000001FF
